{"abi":[{"type":"function","name":"balanceOf","inputs":[{"name":"user","type":"address","internalType":"address"}],"outputs":[{"name":"","type":"uint256","internalType":"uint256"}],"stateMutability":"view"},{"type":"function","name":"deposit","inputs":[],"outputs":[],"stateMutability":"payable"},{"type":"function","name":"myBalance","inputs":[],"outputs":[{"name":"","type":"uint256","internalType":"uint256"}],"stateMutability":"view"},{"type":"function","name":"withdraw","inputs":[{"name":"amount","type":"uint256","internalType":"uint256"}],"outputs":[],"stateMutability":"nonpayable"},{"type":"event","name":"Deposit","inputs":[{"name":"user","type":"address","indexed":true,"internalType":"address"},{"name":"amt","type":"uint256","indexed":false,"internalType":"uint256"}],"anonymous":false},{"type":"event","name":"Withdraw","inputs":[{"name":"user","type":"address","indexed":true,"internalType":"address"},{"name":"amt","type":"uint256","indexed":false,"internalType":"uint256"}],"anonymous":false}],"bytecode":{"object":"0x6080604052348015600e575f5ffd5b506105ba8061001c5f395ff3fe60806040526004361061003e575f3560e01c80632e1a7d4d1461004257806370a082311461006a578063c9116b69146100a6578063d0e30db0146100d0575b5f5ffd5b34801561004d575f5ffd5b50610068600480360381019061006391906103a1565b6100da565b005b348015610075575f5ffd5b50610090600480360381019061008b9190610426565b610240565b60405161009d9190610460565b60405180910390f35b3480156100b1575f5ffd5b506100ba610285565b6040516100c79190610460565b60405180910390f35b6100d86102c8565b005b805f5f3373ffffffffffffffffffffffffffffffffffffffff1673ffffffffffffffffffffffffffffffffffffffff1681526020019081526020015f20541015610159576040517f08c379a0000000000000000000000000000000000000000000000000000000008152600401610150906104d3565b60405180910390fd5b805f5f3373ffffffffffffffffffffffffffffffffffffffff1673ffffffffffffffffffffffffffffffffffffffff1681526020019081526020015f205f8282546101a4919061051e565b925050819055503373ffffffffffffffffffffffffffffffffffffffff166108fc8290811502906040515f60405180830381858888f193505050501580156101ee573d5f5f3e3d5ffd5b503373ffffffffffffffffffffffffffffffffffffffff167f884edad9ce6fa2440d8a54cc123490eb96d2768479d49ff9c7366125a9424364826040516102359190610460565b60405180910390a250565b5f5f5f8373ffffffffffffffffffffffffffffffffffffffff1673ffffffffffffffffffffffffffffffffffffffff1681526020019081526020015f20549050919050565b5f5f5f3373ffffffffffffffffffffffffffffffffffffffff1673ffffffffffffffffffffffffffffffffffffffff1681526020019081526020015f2054905090565b345f5f3373ffffffffffffffffffffffffffffffffffffffff1673ffffffffffffffffffffffffffffffffffffffff1681526020019081526020015f205f8282546103139190610551565b925050819055503373ffffffffffffffffffffffffffffffffffffffff167fe1fffcc4923d04b559f4d29a8bfc6cda04eb5b0d3c460751c2402c5c5cc9109c346040516103609190610460565b60405180910390a2565b5f5ffd5b5f819050919050565b6103808161036e565b811461038a575f5ffd5b50565b5f8135905061039b81610377565b92915050565b5f602082840312156103b6576103b561036a565b5b5f6103c38482850161038d565b91505092915050565b5f73ffffffffffffffffffffffffffffffffffffffff82169050919050565b5f6103f5826103cc565b9050919050565b610405816103eb565b811461040f575f5ffd5b50565b5f81359050610420816103fc565b92915050565b5f6020828403121561043b5761043a61036a565b5b5f61044884828501610412565b91505092915050565b61045a8161036e565b82525050565b5f6020820190506104735f830184610451565b92915050565b5f82825260208201905092915050565b7f62616c616e636520746f6f206c6f7700000000000000000000000000000000005f82015250565b5f6104bd600f83610479565b91506104c882610489565b602082019050919050565b5f6020820190508181035f8301526104ea816104b1565b9050919050565b7f4e487b71000000000000000000000000000000000000000000000000000000005f52601160045260245ffd5b5f6105288261036e565b91506105338361036e565b925082820390508181111561054b5761054a6104f1565b5b92915050565b5f61055b8261036e565b91506105668361036e565b925082820190508082111561057e5761057d6104f1565b5b9291505056fea26469706673582212206a2877a91006dba14080ad5613949656c62aba487ddb37e701c076636865cc3a64736f6c634300081e0033","linkReferences":{}},"methodIdentifiers":{"balanceOf(address)":"70a08231","deposit()":"d0e30db0","myBalance()":"c9116b69","withdraw(uint256)":"2e1a7d4d"},"id":0}