{
  "abi": [
    {
      "type": "constructor",
      "inputs": [
        {
          "name": "_token",
          "type": "address",
          "internalType": "contract IERC20"
        }
      ],
      "stateMutability": "nonpayable"
    },
    {
      "type": "function",
      "name": "deposit",
      "inputs": [],
      "outputs": [],
      "stateMutability": "payable"
    },
    {
      "type": "function",
      "name": "depositToken",
      "inputs": [
        {
          "name": "amount",
          "type": "uint256",
          "internalType": "uint256"
        }
      ],
      "outputs": [],
      "stateMutability": "nonpayable"
    },
    {
      "type": "function",
      "name": "ethBalanceOf",
      "inputs": [
        {
          "name": "user",
          "type": "address",
          "internalType": "address"
        }
      ],
      "outputs": [
        {
          "name": "",
          "type": "uint256",
          "internalType": "uint256"
        }
      ],
      "stateMutability": "view"
    },
    {
      "type": "function",
      "name": "myEth",
      "inputs": [],
      "outputs": [
        {
          "name": "",
          "type": "uint256",
          "internalType": "uint256"
        }
      ],
      "stateMutability": "view"
    },
    {
      "type": "function",
      "name": "myToken",
      "inputs": [],
      "outputs": [
        {
          "name": "",
          "type": "uint256",
          "internalType": "uint256"
        }
      ],
      "stateMutability": "view"
    },
    {
      "type": "function",
      "name": "token",
      "inputs": [],
      "outputs": [
        {
          "name": "",
          "type": "address",
          "internalType": "contract IERC20"
        }
      ],
      "stateMutability": "view"
    },
    {
      "type": "function",
      "name": "tokenBalanceOf",
      "inputs": [
        {
          "name": "user",
          "type": "address",
          "internalType": "address"
        }
      ],
      "outputs": [
        {
          "name": "",
          "type": "uint256",
          "internalType": "uint256"
        }
      ],
      "stateMutability": "view"
    },
    {
      "type": "function",
      "name": "withdraw",
      "inputs": [
        {
          "name": "amountWei",
          "type": "uint256",
          "internalType": "uint256"
        }
      ],
      "outputs": [],
      "stateMutability": "nonpayable"
    },
    {
      "type": "function",
      "name": "withdrawToken",
      "inputs": [
        {
          "name": "amount",
          "type": "uint256",
          "internalType": "uint256"
        }
      ],
      "outputs": [],
      "stateMutability": "nonpayable"
    },
    {
      "type": "event",
      "name": "DepositETH",
      "inputs": [
        {
          "name": "user",
          "type": "address",
          "indexed": true,
          "internalType": "address"
        },
        {
          "name": "amt",
          "type": "uint256",
          "indexed": false,
          "internalType": "uint256"
        }
      ],
      "anonymous": false
    },
    {
      "type": "event",
      "name": "DepositToken",
      "inputs": [
        {
          "name": "user",
          "type": "address",
          "indexed": true,
          "internalType": "address"
        },
        {
          "name": "amt",
          "type": "uint256",
          "indexed": false,
          "internalType": "uint256"
        }
      ],
      "anonymous": false
    },
    {
      "type": "event",
      "name": "WithdrawETH",
      "inputs": [
        {
          "name": "user",
          "type": "address",
          "indexed": true,
          "internalType": "address"
        },
        {
          "name": "amt",
          "type": "uint256",
          "indexed": false,
          "internalType": "uint256"
        }
      ],
      "anonymous": false
    },
    {
      "type": "event",
      "name": "WithdrawToken",
      "inputs": [
        {
          "name": "user",
          "type": "address",
          "indexed": true,
          "internalType": "address"
        },
        {
          "name": "amt",
          "type": "uint256",
          "indexed": false,
          "internalType": "uint256"
        }
      ],
      "anonymous": false
    },
    {
      "type": "error",
      "name": "SafeERC20FailedOperation",
      "inputs": [
        {
          "name": "token",
          "type": "address",
          "internalType": "address"
        }
      ]
    }
  ],
  "bytecode": {
    "object": "0x60a060405234801561000f575f5ffd5b50604051610e16380380610e16833981810160405281019061003191906100da565b8073ffffffffffffffffffffffffffffffffffffffff1660808173ffffffffffffffffffffffffffffffffffffffff168152505050610105565b5f5ffd5b5f73ffffffffffffffffffffffffffffffffffffffff82169050919050565b5f6100988261006f565b9050919050565b5f6100a98261008e565b9050919050565b6100b98161009f565b81146100c3575f5ffd5b50565b5f815190506100d4816100b0565b92915050565b5f602082840312156100ef576100ee61006b565b5b5f6100fc848285016100c6565b91505092915050565b608051610ceb61012b5f395f818161048401528181610521015261077d0152610ceb5ff3fe608060405260043610610085575f3560e01c80637252bbf2116100585780637252bbf21461012b578063b8fcf93714610167578063d0e30db014610191578063e42c08f21461019b578063fc0c546a146101d757610085565b80632e1a7d4d146100895780633318fafc146100b157806350baa622146100db5780636215be7714610103575b5f5ffd5b348015610094575f5ffd5b506100af60048036038101906100aa9190610972565b610201565b005b3480156100bc575f5ffd5b506100c5610367565b6040516100d291906109ac565b60405180910390f35b3480156100e6575f5ffd5b5061010160048036038101906100fc9190610972565b6103aa565b005b34801561010e575f5ffd5b5061012960048036038101906101249190610972565b610519565b005b348015610136575f5ffd5b50610151600480360381019061014c9190610a1f565b61060a565b60405161015e91906109ac565b60405180910390f35b348015610172575f5ffd5b5061017b61064f565b60405161018891906109ac565b60405180910390f35b610199610693565b005b3480156101a6575f5ffd5b506101c160048036038101906101bc9190610a1f565b610735565b6040516101ce91906109ac565b60405180910390f35b3480156101e2575f5ffd5b506101eb61077b565b6040516101f89190610aa5565b60405180910390f35b805f5f3373ffffffffffffffffffffffffffffffffffffffff1673ffffffffffffffffffffffffffffffffffffffff1681526020019081526020015f20541015610280576040517f08c379a000000000000000000000000000000000000000000000000000000000815260040161027790610b18565b60405180910390fd5b805f5f3373ffffffffffffffffffffffffffffffffffffffff1673ffffffffffffffffffffffffffffffffffffffff1681526020019081526020015f205f8282546102cb9190610b63565b925050819055503373ffffffffffffffffffffffffffffffffffffffff166108fc8290811502906040515f60405180830381858888f19350505050158015610315573d5f5f3e3d5ffd5b503373ffffffffffffffffffffffffffffffffffffffff167f566e45b1c8057e725bf62796a7f1d37ae294393cab069725a09daddd1af98b798260405161035c91906109ac565b60405180910390a250565b5f5f5f3373ffffffffffffffffffffffffffffffffffffffff1673ffffffffffffffffffffffffffffffffffffffff1681526020019081526020015f2054905090565b8060015f3373ffffffffffffffffffffffffffffffffffffffff1673ffffffffffffffffffffffffffffffffffffffff1681526020019081526020015f2054101561042a576040517f08c379a000000000000000000000000000000000000000000000000000000000815260040161042190610be0565b60405180910390fd5b8060015f3373ffffffffffffffffffffffffffffffffffffffff1673ffffffffffffffffffffffffffffffffffffffff1681526020019081526020015f205f8282546104769190610b63565b925050819055506104c833827f000000000000000000000000000000000000000000000000000000000000000073ffffffffffffffffffffffffffffffffffffffff1661079f9092919063ffffffff16565b3373ffffffffffffffffffffffffffffffffffffffff167f992ee874049a42cae0757a765cd7f641b6028cc35c3478bde8330bf417c3a7a98260405161050e91906109ac565b60405180910390a250565b6105663330837f000000000000000000000000000000000000000000000000000000000000000073ffffffffffffffffffffffffffffffffffffffff1661081e909392919063ffffffff16565b8060015f3373ffffffffffffffffffffffffffffffffffffffff1673ffffffffffffffffffffffffffffffffffffffff1681526020019081526020015f205f8282546105b29190610bfe565b925050819055503373ffffffffffffffffffffffffffffffffffffffff167f2d0c0a8842b9944ece1495eb61121621b5e36bd6af3bba0318c695f525aef79f826040516105ff91906109ac565b60405180910390a250565b5f5f5f8373ffffffffffffffffffffffffffffffffffffffff1673ffffffffffffffffffffffffffffffffffffffff1681526020019081526020015f20549050919050565b5f60015f3373ffffffffffffffffffffffffffffffffffffffff1673ffffffffffffffffffffffffffffffffffffffff1681526020019081526020015f2054905090565b345f5f3373ffffffffffffffffffffffffffffffffffffffff1673ffffffffffffffffffffffffffffffffffffffff1681526020019081526020015f205f8282546106de9190610bfe565b925050819055503373ffffffffffffffffffffffffffffffffffffffff167fced5d8bf10823804603bba066e4f53aa6e8f6f4be68bf0114cf7a0e52183e4e93460405161072b91906109ac565b60405180910390a2565b5f60015f8373ffffffffffffffffffffffffffffffffffffffff1673ffffffffffffffffffffffffffffffffffffffff1681526020019081526020015f20549050919050565b7f000000000000000000000000000000000000000000000000000000000000000081565b610819838473ffffffffffffffffffffffffffffffffffffffff1663a9059cbb85856040516024016107d2929190610c40565b604051602081830303815290604052915060e01b6020820180517bffffffffffffffffffffffffffffffffffffffffffffffffffffffff83818316178352505050506108a0565b505050565b61089a848573ffffffffffffffffffffffffffffffffffffffff166323b872dd86868660405160240161085393929190610c67565b604051602081830303815290604052915060e01b6020820180517bffffffffffffffffffffffffffffffffffffffffffffffffffffffff83818316178352505050506108a0565b50505050565b5f5f60205f8451602086015f885af1806108bf576040513d5f823e3d81fd5b3d92505f519150505f82146108d85760018114156108f3565b5f8473ffffffffffffffffffffffffffffffffffffffff163b145b1561093557836040517f5274afe700000000000000000000000000000000000000000000000000000000815260040161092c9190610c9c565b60405180910390fd5b50505050565b5f5ffd5b5f819050919050565b6109518161093f565b811461095b575f5ffd5b50565b5f8135905061096c81610948565b92915050565b5f602082840312156109875761098661093b565b5b5f6109948482850161095e565b91505092915050565b6109a68161093f565b82525050565b5f6020820190506109bf5f83018461099d565b92915050565b5f73ffffffffffffffffffffffffffffffffffffffff82169050919050565b5f6109ee826109c5565b9050919050565b6109fe816109e4565b8114610a08575f5ffd5b50565b5f81359050610a19816109f5565b92915050565b5f60208284031215610a3457610a3361093b565b5b5f610a4184828501610a0b565b91505092915050565b5f819050919050565b5f610a6d610a68610a63846109c5565b610a4a565b6109c5565b9050919050565b5f610a7e82610a53565b9050919050565b5f610a8f82610a74565b9050919050565b610a9f81610a85565b82525050565b5f602082019050610ab85f830184610a96565b92915050565b5f82825260208201905092915050565b7f4554482062616c616e636520746f6f206c6f77000000000000000000000000005f82015250565b5f610b02601383610abe565b9150610b0d82610ace565b602082019050919050565b5f6020820190508181035f830152610b2f81610af6565b9050919050565b7f4e487b71000000000000000000000000000000000000000000000000000000005f52601160045260245ffd5b5f610b6d8261093f565b9150610b788361093f565b9250828203905081811115610b9057610b8f610b36565b5b92915050565b7f546f6b656e2062616c616e636520746f6f206c6f7700000000000000000000005f82015250565b5f610bca601583610abe565b9150610bd582610b96565b602082019050919050565b5f6020820190508181035f830152610bf781610bbe565b9050919050565b5f610c088261093f565b9150610c138361093f565b9250828201905080821115610c2b57610c2a610b36565b5b92915050565b610c3a816109e4565b82525050565b5f604082019050610c535f830185610c31565b610c60602083018461099d565b9392505050565b5f606082019050610c7a5f830186610c31565b610c876020830185610c31565b610c94604083018461099d565b949350505050565b5f602082019050610caf5f830184610c31565b9291505056fea264697066735822122032615a9520dbc005f8c017868bf92a731d79a8f0c10e14b93e16928d9e07df5b64736f6c634300081e0033",
    "linkReferences": {}
  },
  "methodIdentifiers": {
    "deposit()": "d0e30db0",
    "depositToken(uint256)": "6215be77",
    "ethBalanceOf(address)": "7252bbf2",
    "myEth()": "3318fafc",
    "myToken()": "b8fcf937",
    "token()": "fc0c546a",
    "tokenBalanceOf(address)": "e42c08f2",
    "withdraw(uint256)": "2e1a7d4d",
    "withdrawToken(uint256)": "50baa622"
  },
  "id": 29
}